:100000000EC01DC01CC01BC01AC019C018C017C02C
:1000100016C015C014C013C012C011C010C01124E6
:100020001FBECFE5D2E0DEBFCDBF20E0A0E6B0E04E
:1000300001C01D92A83DB207E1F7C2D1E2C1E0CFF5
:1000400086B38A7390E0089528E030E094E045E0BC
:1000500018BA87FF02C048BB01C098BB880F215067
:100060003109B1F70895CF93DF93DC01EB019B01D8
:1000700035952795CD0166E070E0B2D1805A9F4F4B
:10008000FC01E20FF31F9081C0FF04C04295407F46
:100090009F7001C0907F492BCD0166E070E0A0D138
:1000A000805A9F4FFC01E20FF31F4083DF91CF91F5
:1000B0000895AB019B013595279566E070E090D1DE
:1000C000805A9F4FFC01E20FF31F808140FD829513
:1000D0008F700895982F9295907F892BE0E6F0E03D
:1000E000808381838283838384838583369690E0B3
:1000F000E83DF907A9F708957F928F929F92AF92FA
:10010000BF92CF92DF92EF92FF920F931F93CF9304
:10011000DF936C017B014A015901C0E0D0E000E0AF
:1001200010E00C151D052CF5B701C801C2DF782EB3
:10013000B701C8010196BDDFE72DF0E0EE0FFF1F0C
:10014000EE0FFF1FE80DF91DEC0FFD1F908192953A
:10015000907FE82FF0E0EE0FFF1FEE0FFF1FE80D7E
:10016000F91DEC0FFD1F8081892B6EDF0E5F1F4F85
:10017000D8CF8601043111052CF5B701C80199DFEC
:10018000782EB701C801019694DFE72DF0E0EE0F5D
:10019000FF1FEE0FFF1FEA0DFB1DEC0FFD1F9081EF
:1001A0009295907FE82FF0E0EE0FFF1FEE0FFF1FFC
:1001B000EA0DFB1DEC0FFD1F8081892B45DF0E5FD3
:1001C0001F4FD8CF2196C430D10509F0A8CFDF91B9
:1001D000CF911F910F91FF90EF90DF90CF90BF9044
:1001E000AF909F908F907F9008959F92AF92BF9213
:1001F000CF92DF92EF92FF920F931F93CF93DF93F3
:10020000EC016B017A01CC15DD05A4F5A12CB12C14
:1002100000E010E0BE01C8014CDF982EBE01C8010D
:10022000019647DFE92DF0E0EE0FFF1FEE0FFF1FF5
:10023000EE0DFF1DEA0DFB1D90819295907FE82F3A
:10024000F0E0EE0FFF1FEE0FFF1FEE0DFF1DEA0D9A
:10025000FB1D8081892BF8DE0E5F1F4F04311105D5
:10026000C9F68FEFA81AB80A84E0A816B10481F67F
:100270002196C9CFDF91CF911F910F91FF90EF9001
:10028000DF90CF90BF90AF909F900895AC016CE04D
:1002900070E080E090E0A9CF0F931F93CF93DF939E
:1002A00000E010E0C0E0D0E0C530D1052CF408310A
:1002B000110514F48FEF01C080E0C6DE2196CA302C
:1002C000D10591F70F5F1F4F0033110559F7DF91EB
:1002D000CF911F910F9108950F931F93CF93DF93A9
:1002E00000E010E0C0E0D0E0C530D1052CF40831CA
:1002F000110514F08FEF01C080E0A6DE2196CA3010
:10030000D10591F70F5F1F4F0033110559F7DF91AA
:10031000CF911F910F9108950F931F93CF93DF9368
:1003200000E010E0C0E0D0E0C530D1052CF008318D
:10033000110514F48FEF01C080E086DE2196CA30EB
:10034000D10591F70F5F1F4F0033110559F7DF916A
:10035000CF911F910F9108950F931F93CF93DF9328
:1003600000E010E0C0E0D0E0C530D1052CF008314D
:10037000110514F08FEF01C080E066DE2196CA30CF
:10038000D10591F70F5F1F4F0033110559F7DF912A
:10039000CF911F910F9108950F931F93CF93DF93E8
:1003A00000E310E0CAE0D0E080E04EDE2197E1F704
:1003B00001501109B9F7DF91CF911F910F91089565
:1003C0008FE087BB18BA68DFB39BFECF85DFB59B94
:1003D000FECFC2DFB19BFECF9FDF80E090E00895AB
:1003E0000024552704C0080E591F880F991F009735
:1003F00029F076956795B8F37105B9F7802D952F9B
:060400000895F894FFCFFF
:00000001FF
