:100000000EC028C027C026C025C024C023C022C0DF
:1000100021C020C01FC01EC01DC01CC01BC0112499
:100020001FBECFE5D2E0DEBFCDBF10E0A0E6B0E05E
:10003000EAE9F4E002C005900D92AE3AB107D9F7B3
:1000400021E0AEEAB0E001C01D92AA32B207E1F7AA
:10005000A4D121C2D5CF86B38A7390E0089528E059
:1000600030E094E045E018BA87FF02C048BB01C009
:1000700098BB880F21503109B1F70895CF93DF93D2
:10008000DC01EB019B0135952795CD0166E070E021
:10009000F1D180559F4FFC01E20FF31F9081C0FF0B
:1000A00004C04295407F9F7001C0907F492BCD01D5
:1000B00066E070E0DFD180559F4FFC01E20FF31F37
:1000C0004083DF91CF910895AB019B013595279532
:1000D00066E070E0CFD180559F4FFC01E20FF31F27
:1000E000808140FD82958F700895982F9295907F22
:1000F000892BE0EBF0E08083818382838383848398
:100100008583369691E0E832F907A9F708957F9242
:100110008F929F92AF92BF92CF92DF92EF92FF9217
:100120000F931F93CF93DF936C017B014A01590119
:10013000C0E0D0E000E010E00C151D052CF5B70183
:10014000C801C2DF782EB701C8010196BDDFE72DD7
:10015000F0E0EE0FFF1FEE0FFF1FE80DF91DEC0F93
:10016000FD1F90819295907FE82FF0E0EE0FFF1F2A
:10017000EE0FFF1FE80DF91DEC0FFD1F8081892B8D
:100180006EDF0E5F1F4FD8CF8601043111052CF5AD
:10019000B701C80199DF782EB701C801019694DF35
:1001A000E72DF0E0EE0FFF1FEE0FFF1FEA0DFB1D26
:1001B000EC0FFD1F90819295907FE82FF0E0EE0FFD
:1001C000FF1FEE0FFF1FEA0DFB1DEC0FFD1F8081CF
:1001D000892B45DF0E5F1F4FD8CF2196C430D10544
:1001E00009F0A8CFDF91CF911F910F91FF90EF9071
:1001F000DF90CF90BF90AF909F908F907F900895A9
:100200009F92AF92BF92CF92DF92EF92FF920F93A5
:100210001F93CF93DF93EC016B017A01CC15DD05C1
:10022000A4F5A12CB12C00E010E0BE01C8014CDF08
:10023000982EBE01C801019647DFE92DF0E0EE0FD0
:10024000FF1FEE0FFF1FEE0DFF1DEA0DFB1D90813E
:100250009295907FE82FF0E0EE0FFF1FEE0FFF1F4B
:10026000EE0DFF1DEA0DFB1D8081892BF8DE0E5F70
:100270001F4F04311105C9F68FEFA81AB80A84E0A0
:10028000A816B10481F62196C9CFDF91CF911F91B5
:100290000F91FF90EF90DF90CF90BF90AF909F9025
:1002A0000895AC016CE070E080E090E0A9CFA8E692
:1002B000B0E0E0E6F0E020E030E04D915D914817DD
:1002C000590729F4408151814617570749F02F5F9C
:1002D0003F4F32962430310581F78FEF9FEF08951D
:1002E000C9010895EF92FF920F931F93CF93DF936D
:1002F00000E010E0C0E0D0E0E12CF12C8091AE00F5
:100300009091AF000817190749F480912801909146
:1003100029018E159F0511F48FEF0DC0B801C7019B
:10032000C6DF97FD07C02097B9F3C730D105A1F309
:1003300081E801C080E093DE8FEFE81AF80A8AE0D6
:10034000E816F104D9F62196C830D105A9F60F5F59
:100350001F4F0630110571F6DF91CF911F910F915C
:10036000FF90EF9008950A9738F481E090E06630AE
:10037000710520F080E0089580E090E008958FE01E
:1003800087BB18BA82E090E09093290180932801FE
:100390009093AF008093AE000895F1DF4091280163
:1003A000509129018091AE009091AF0026B32A733D
:1003B00030E0225031092F31310578F4F901E1574D
:1003C000FF4F0081002E000C110BF901E059FF4F87
:1003D000E0800E2C000CFF0804C0E12CF12C00E0A2
:1003E00010E06801C40ED51E2AE0C216D104F0F652
:1003F0005701A80EB91E36E0A316B104B8F6B50130
:10040000C60155DF97FD19C0880F991FFC01E859F7
:10041000FF4F4F0120813181020F131F0A30110558
:10042000A0F4EC01C05ADF4F88819981E80EF91ED3
:10043000F6E0EF16F10458F008C0D0922901C092FE
:100440002801B092AF00A092AE004CDFA7CFB70159
:10045000C8012DDF97FFF9CFD0922901C092280162
:10046000B092AF00A092AE00F40111830083F98234
:10047000E882EBCF0024552704C0080E591F880FCF
:10048000991F009729F076956795B8F37105B9F72C
:0A049000802D952F0895F894FFCFFA
:10049A00010004000200040001000200060004003A
:1004AA00FF00000000000100000000000000000042
:1004BA000000000000000000000000000000000032
:1004CA0000000000000000000000000000FF000023
:0E04DA00000000000000000000000000000113
:00000001FF
