:100000000EC028C027C026C025C024C023C022C0DF
:1000100021C020C01FC01EC01DC01CC01BC0112499
:100020001FBECFE5D2E0DEBFCDBF10E0A0E6B0E05E
:10003000E6E7F4E002C005900D92AE39B107D9F7BA
:1000400021E0AEE9B0E001C01D92AE31B207E1F7A8
:100050009CD10FC2D5CF86B38A7390E0089528E073
:1000600030E094E045E018BA87FF02C048BB01C009
:1000700098BB880F21503109B1F70895CF93DF93D2
:10008000DC01EB019B0135952795CD0166E070E021
:10009000DFD18E559F4FFC01E20FF31F9081C0FF0F
:1000A00004C04295407F9F7001C0907F492BCD01D5
:1000B00066E070E0CDD18E559F4FFC01E20FF31F3B
:1000C0004083DF91CF910895AB019B013595279532
:1000D00066E070E0BDD18E559F4FFC01E20FF31F2B
:1000E000808140FD82958F700895982F9295907F22
:1000F000892BE2EAF0E08083818382838383848397
:100100008583369691E0EA31F907A9F708957F9241
:100110008F929F92AF92BF92CF92DF92EF92FF9217
:100120000F931F93CF93DF936C017B014A01590119
:10013000C0E0D0E000E010E00C151D052CF5B70183
:10014000C801C2DF782EB701C8010196BDDFE72DD7
:10015000F0E0EE0FFF1FEE0FFF1FE80DF91DEC0F93
:10016000FD1F90819295907FE82FF0E0EE0FFF1F2A
:10017000EE0FFF1FE80DF91DEC0FFD1F8081892B8D
:100180006EDF0E5F1F4FD8CF8601043111052CF5AD
:10019000B701C80199DF782EB701C801019694DF35
:1001A000E72DF0E0EE0FFF1FEE0FFF1FEA0DFB1D26
:1001B000EC0FFD1F90819295907FE82FF0E0EE0FFD
:1001C000FF1FEE0FFF1FEA0DFB1DEC0FFD1F8081CF
:1001D000892B45DF0E5F1F4FD8CF2196C430D10544
:1001E00009F0A8CFDF91CF911F910F91FF90EF9071
:1001F000DF90CF90BF90AF909F908F907F900895A9
:100200009F92AF92BF92CF92DF92EF92FF920F93A5
:100210001F93CF93DF93EC016B017A01CC15DD05C1
:10022000A4F5A12CB12C00E010E0BE01C8014CDF08
:10023000982EBE01C801019647DFE92DF0E0EE0FD0
:10024000FF1FEE0FFF1FEE0DFF1DEA0DFB1D90813E
:100250009295907FE82FF0E0EE0FFF1FEE0FFF1F4B
:10026000EE0DFF1DEA0DFB1D8081892BF8DE0E5F70
:100270001F4F04311105C9F68FEFA81AB80A84E0A0
:10028000A816B10481F62196C9CFDF91CF911F91B5
:100290000F91FF90EF90DF90CF90BF90AF909F9025
:1002A0000895AC016CE070E080E090E0A9CFEF929F
:1002B000FF920F931F93CF93DF9300E010E0C0E015
:1002C000D0E0E12CF12C80919E0090919F000817C6
:1002D000190749F480911A0190911B018E159F0511
:1002E00011F48FEF16C08091A0009091A100081723
:1002F000190771F480911C0190911D018E159F05C5
:1003000039F4209771F3C730D10559F381E801C062
:1003100080E0A5DE8FEFE81AF80A8AE0E816F1041B
:1003200091F62196C830D10561F60F5F1F4F063058
:10033000110529F6DF91CF911F910F91FF90EF905A
:1003400008950A9738F481E090E06630710520F056
:1003500080E0089580E090E008958FE087BB18BAB0
:1003600084E090E090931B0180931A0190939F008A
:1003700080939E0081E090E090931D0180931C018A
:100380009093A1008093A0000895E7DFE0911A0107
:10039000F0911B0160919E0070919F0086B38A735B
:1003A00090E002978F31910578F4DC01A158BF4F9E
:1003B0002C91022E000C330BDC01A05ABF4F8C9104
:1003C000082E000C990B04C080E090E020E030E0A3
:1003D000D901AE0FBF1FAA30B10500F7AC01460F1F
:1003E000571F46305105D0F660911C0170911D01D8
:1003F000A617B70791F46091A0007091A10046176D
:10040000570759F42A0F3B1F2A30310570F4840F27
:10041000951F8630910558F008C0B0931B01A0933A
:100420001A0150939F0040939E0041DFAFCFB093DD
:100430001B01A0931A0150939F0040939E0030939C
:100440001D0120931C019093A1008093A000EDCF8B
:100450000024552704C0080E591F880F991F0097C4
:1004600029F076956795B8F37105B9F7802D952F2A
:060470000895F894FFCF8F
:10047600FF00000000000100000000000000000076
:100486000000000000000000000000000000000066
:1004960000000000000000000000000000FF000057
:0E04A600000000000000000000000000000147
:00000001FF
