:100000000EC028C027C026C025C024C023C022C0DF
:1000100021C020C01FC01EC01DC01CC01BC0112499
:100020001FBECFE5D2E0DEBFCDBF10E0A0E6B0E05E
:10003000ECEEF5E002C005900D92AA3BB107D9F7AE
:1000400021E0AAEBB0E001C01D92A433B207E1F7B2
:100050008CD2CAC2D5CF86B38A7390E0089528E0C7
:1000600030E094E045E018BA87FF02C048BB01C009
:1000700098BB880F21503109B1F70895CF93DF93D2
:10008000DC01EB019B0135952795CD0166E070E021
:1000900073D284549F4FFC01E20FF31F9081C0FF85
:1000A00004C04295407F9F7001C0907F492BCD01D5
:1000B00066E070E061D284549F4FFC01E20FF31FB1
:1000C0004083DF91CF910895AB019B013595279532
:1000D00066E070E051D284549F4FFC01E20FF31FA1
:1000E000808140FD82958F700895982F9295907F22
:1000F000892BECEBF0E0808381838283838384838C
:100100008583369691E0E433F907A9F708957F9245
:100110008F929F92AF92BF92CF92DF92EF92FF9217
:100120000F931F93CF93DF936C017B014A01590119
:10013000C0E0D0E000E010E00C151D052CF5B70183
:10014000C801C2DF782EB701C8010196BDDFE72DD7
:10015000F0E0EE0FFF1FEE0FFF1FE80DF91DEC0F93
:10016000FD1F90819295907FE82FF0E0EE0FFF1F2A
:10017000EE0FFF1FE80DF91DEC0FFD1F8081892B8D
:100180006EDF0E5F1F4FD8CF8601043111052CF5AD
:10019000B701C80199DF782EB701C801019694DF35
:1001A000E72DF0E0EE0FFF1FEE0FFF1FEA0DFB1D26
:1001B000EC0FFD1F90819295907FE82FF0E0EE0FFD
:1001C000FF1FEE0FFF1FEA0DFB1DEC0FFD1F8081CF
:1001D000892B45DF0E5F1F4FD8CF2196C430D10544
:1001E00009F0A8CFDF91CF911F910F91FF90EF9071
:1001F000DF90CF90BF90AF909F908F907F900895A9
:100200009F92AF92BF92CF92DF92EF92FF920F93A5
:100210001F93CF93DF93EC016B017A01CC15DD05C1
:10022000A4F5A12CB12C00E010E0BE01C8014CDF08
:10023000982EBE01C801019647DFE92DF0E0EE0FD0
:10024000FF1FEE0FFF1FEE0DFF1DEA0DFB1D90813E
:100250009295907FE82FF0E0EE0FFF1FEE0FFF1F4B
:10026000EE0DFF1DEA0DFB1D8081892BF8DE0E5F70
:100270001F4F04311105C9F68FEFA81AB80A84E0A0
:10028000A816B10481F62196C9CFDF91CF911F91B5
:100290000F91FF90EF90DF90CF90BF90AF909F9025
:1002A0000895AC016CE070E080E090E0A9CF3F924F
:1002B0004F925F926F927F928F929F92AF92BF9276
:1002C000CF92DF92EF92FF920F931F93CF93DF9322
:1002D000EC014B017A016C0185E0C80ED11C00E1F4
:1002E00017E25B018FEFA81AB80A8AE0682E712C1A
:1002F000C701B80152D1562E372E44244394460EDE
:10030000442DB401CE01BADE442DB501CE01B6DED6
:10031000852D932DB80130D1E81AF90AC801B3012F
:100320003CD18B012196CC16DD0611F7DF91CF91E0
:100330001F910F91FF90EF90DF90CF90BF90AF9003
:100340009F908F907F906F905F904F903F90089517
:100350006F927F928F929F92AF92BF92CF92DF92D5
:10036000EF92FF920F931F93CF93DF93EC014B011A
:100370006A017C0185E0E80EF11C00E117E25B01F7
:100380008FEFA81AB80A8AE0682E712CC016D10621
:1003900041F440E0B401CE0171DE40E0B501CE0190
:1003A0006DDEC801B301F9D08B012196CE15DF05B2
:1003B00069F7DF91CF911F910F91FF90EF90DF9040
:1003C000CF90BF90AF909F908F907F906F90089547
:1003D0008FE087BB18BA0895EF92FF920F931F9397
:1003E000CF93DF93EC017B01E4E0F0E028EE33E013
:1003F0000AE010E0CE01B901D0D0CB01E216F3063D
:1004000061F0B901B9D0C81BD90BC901B801C5D079
:100410009B01319779F780E090E0DF91CF911F91B8
:100420000F91FF90EF9008950F931F93CF93DF9359
:1004300086B3C0916000D091610083FF14C0009129
:10044000BA001091BB00BE01C801C6DF892B21F4A0
:10045000CE0169E070E015C00C1B1D0B1093BB00B2
:100460000093BA0039C081FF1BC00091BA001091FF
:10047000BB00BE01C801B0DF099759F4CE0167EF98
:100480007FEF7AD0800F911F9093BB008093BA00CA
:1004900023C0C00FD11FD093BB00C093BA001CC0B3
:1004A000C230D1057CF085FF09C0CE016AE070E062
:1004B00074D070936100609360000EC0C83E93E0FA
:1004C000D90754F48A7341F0CE016AE070E054D049
:1004D0009093610080936000DF91CF911F910F9105
:1004E00008950F931F93CF93DF938C01AC0165E0C8
:1004F00070E088E090E0DBDEC0E0D0E08091BA0000
:100500009091BB000817190759F18EDF209751F41D
:100510004091BA005091BB0065E070E088E090E047
:10052000C6DE0CC0C230D10549F440916000509144
:10053000610065E070E088E090E00ADF4EE850E09E
:1005400066E070E080E090E05BDE42E650E06CE068
:1005500070E086E090E054DE2196C370DD27CECFB8
:10056000DF91CF911F910F91089532DF8FE690E0D8
:10057000B8DF80E090E008950024552704C0080EFD
:10058000591F880F991F009729F076956795B8F342
:100590007105B9F7802D952F089597FB072E16F456
:1005A000009406D077FD08D00BD007FC05D03EF4B0
:1005B000909581959F4F0895709561957F4F08950F
:1005C000AA1BBB1B51E107C0AA1FBB1FA617B70779
:1005D00010F0A61BB70B881F991F5A95A9F7809595
:0C05E0009095BC01CD010895F894FFCF68
:1005EC000100000000000A040000040E0000080EC8
:1005FC000000020C00000E020000020E00000A0EA9
:10060C000000040400000A0E0000020E00000000AE
:10061C00000000040A0A00040C04000C0204000C84
:10062C0002060008080A000E080E000E080E000E46
:0A063C000204000E0A0E000E0A0E62
:00000001FF
