:100000000EC028C027C026C025C024C023C022C0DF
:1000100021C020C01FC01EC01DC01CC01BC0112499
:100020001FBECFE5D2E0DEBFCDBF11E0A0E6B0E05D
:10003000EEE6FDE002C005900D92A435B107D9F7B8
:1000400021E0A4E5B1E001C01D92AC3FB207E1F7A9
:100050004DD68BC6D5CF86B38A7390E0089528E03D
:1000600030E094E045E018BA87FF02C048BB01C009
:1000700098BB880F21503109B1F70895CF93DF93D2
:10008000DC01EB019B0135952795CD0166E070E021
:1000900034D68C579E4FFC01E20FF31F9081C0FFB6
:1000A00004C04295407F9F7001C0907F492BCD01D5
:1000B00066E070E022D68C579E4FFC01E20FF31FE2
:1000C0004083DF91CF910895AB019B013595279532
:1000D00066E070E012D68C579E4FFC01E20FF31FD2
:1000E000808140FD82958F700895982F9295907F22
:1000F000892BE4E8F1E08083818382838383848396
:100100008583369691E0EC3FF907A9F708957F9231
:100110008F929F92AF92BF92CF92DF92EF92FF9217
:100120000F931F93CF93DF936C017B014A01590119
:10013000C0E0D0E000E010E00C151D052CF5B70183
:10014000C801C2DF782EB701C8010196BDDFE72DD7
:10015000F0E0EE0FFF1FEE0FFF1FE80DF91DEC0F93
:10016000FD1F90819295907FE82FF0E0EE0FFF1F2A
:10017000EE0FFF1FE80DF91DEC0FFD1F8081892B8D
:100180006EDF0E5F1F4FD8CF8601043111052CF5AD
:10019000B701C80199DF782EB701C801019694DF35
:1001A000E72DF0E0EE0FFF1FEE0FFF1FEA0DFB1D26
:1001B000EC0FFD1F90819295907FE82FF0E0EE0FFD
:1001C000FF1FEE0FFF1FEA0DFB1DEC0FFD1F8081CF
:1001D000892B45DF0E5F1F4FD8CF2196C430D10544
:1001E00009F0A8CFDF91CF911F910F91FF90EF9071
:1001F000DF90CF90BF90AF909F908F907F900895A9
:100200009F92AF92BF92CF92DF92EF92FF920F93A5
:100210001F93CF93DF93EC016B017A01CC15DD05C1
:10022000A4F5A12CB12C00E010E0BE01C8014CDF08
:10023000982EBE01C801019647DFE92DF0E0EE0FD0
:10024000FF1FEE0FFF1FEE0DFF1DEA0DFB1D90813E
:100250009295907FE82FF0E0EE0FFF1FEE0FFF1F4B
:10026000EE0DFF1DEA0DFB1D8081892BF8DE0E5F70
:100270001F4F04311105C9F68FEFA81AB80A84E0A0
:10028000A816B10481F62196C9CFDF91CF911F91B5
:100290000F91FF90EF90DF90CF90BF90AF909F9025
:1002A0000895AC016CE070E080E090E0A9CF861783
:1002B00097070CF4BC01CB010895681779070CF47B
:1002C000BC01CB0108958AE591E0089580918201F7
:1002D00090918301880F991F880F991F8A5A9E4F0A
:1002E0000895FC01228133812F5F3F4F33832283A6
:1002F0000895FC0122813381215031093383228307
:100300000895E6E5F1E084A595A5019795A784A752
:10031000089580915A0190915B010895CF92DF92E8
:10032000EF92FF929B01AC01121613061CF02E5E99
:100330003F4FFACF233131051CF022513109FACF5A
:10034000433051051CF4485F5F4FFACFCA01039751
:10035000887F69017A01E81AF90AC701B601FF909E
:10036000EF90DF90CF9008959A01FB0181309105C5
:1003700059F040F08230910551F0039751F421502B
:10038000310907C0319705C0FB01319602C02F5FCC
:100390003F4FA901BF01CB01BA01C0DF0895CF9340
:1003A000DF9380E0A2DEC0E0D0E04DE062E070E0EC
:1003B000CE0164DE4DE06BE070E0CE015FDE2196A1
:1003C000C331D10591F7C2E0D0E04EE0BE0180E03C
:1003D00090E054DE4EE0BE0183E190E04FDE2196D6
:1003E000CB30D10591F74FE062E070E080E090E023
:1003F00045DE4FE062E070E083E190E03FDE4FE0F9
:100400006BE070E080E090E039DE4FE06BE070E0A0
:1004100083E190E0DF91CF9131CE6F927F928F9206
:100420009F92AF92BF92CF92DF92EF92FF920F9383
:100430001F93CF93DF93EC015B014A017C0184E0C1
:10044000E80EF11C08EE13E08AE0C82ED12CC4019E
:10045000B80164D4762E672E41E0460FB501CE0177
:100460000DDE872D962DB80148D4881A990AC80147
:10047000B60154D48B012196EC16FD0641F7DF91AD
:10048000CF911F910F91FF90EF90DF90CF90BF9091
:10049000AF909F908F907F906F900895DB01FC014B
:1004A0002130310579F050F02230310579F02330D8
:1004B000310579F4DB01A40FB51F0BC0FC01E40F7B
:1004C000F51F07C0FC01E41BF50B03C0DB01A41BF7
:1004D000B50BBD01CF0108954F925F926F927F924D
:1004E000AF92BF92CF92DF92EF92FF920F931F9342
:1004F000CF93DF9329013A01A80197018B01EC0109
:1005000062015301C301B201C9DFAB019C01401676
:100510005106A9F44616570691F4A30186159705CE
:100520000CF4AC01C417D50704F1F301621673068D
:100530000CF4FC0181E0EC17FD07C4F416C0CA15E9
:10054000DB05B1F4C217D30799F492014C155D0590
:100550000CF49B010217130744F0441655060CF4E3
:100560002B0181E0401651060CF480E0817001C03F
:1005700080E0DF91CF911F910F91FF90EF90DF907E
:10058000CF90BF90AF907F906F905F904F90089505
:100590008F929F92AF92BF92CF92DF92EF92FF9293
:1005A0000F931F93CF93DF934B015C018AE5C82E15
:1005B00081E0D82EC0E0D0E080918201909183014B
:1005C0008C179D07A9F0F601E190F190019111912E
:1005D0006F0120915601309157014091580150917F
:1005E0005901C501B40178DF811103C02196E4CF20
:1005F00080E0DF91CF911F910F91FF90EF90DF90FE
:10060000CF90BF90AF909F908F9008952F923F9280
:100610004F925F926F927F928F929F92AF92BF9212
:10062000CF92DF92EF92FF920F931F93CF93DF93BE
:1006300000D000D0CDB7DEB720915601298330918C
:1006400057013A833090580120905901D22EC32E81
:1006500051018AE5882E81E0982E1C821B828091B0
:10066000820190918301EB81FC818E179F0741F1FC
:10067000F40141905190619071904F012B813C8128
:10068000232B69F0830172012D2D3C2D4B2D5A2D0A
:1006900069817A81832D922D1FDF811112C0A30100
:1006A00092016D2D7C2D8B2D9A2DF8DED62EC72E26
:1006B000B82EA92E8B819C8101969C838B83CFCFF2
:1006C00080E00F900F900F900F90DF91CF911F91CE
:1006D0000F91FF90EF90DF90CF90BF90AF909F90E1
:1006E0008F907F906F905F904F903F902F900895E4
:1006F0004F925F926F927F929F92AF92BF92CF92F2
:10070000DF92EF92FF920F931F93CF93DF932B0112
:100710003C016B0153016217730761F0EB01C21BCF
:10072000D30B8D2F881F8827881F03E010E0081B3C
:10073000110908C0E301C41BD50B0D2F001F0027B2
:10074000001F10E0D7FF03C0D195C195D109A801C2
:100750005695479595E0992E940EE12CF12CEC16C8
:10076000FD0691F026013501B301A201C801FCDDAF
:100770002B013C016B015301492DB301C2017EDC09
:100780008FEFE81AF80AEBCFDF91CF911F910F910D
:10079000FF90EF90DF90CF90BF90AF909F907F90B1
:1007A0006F905F904F9008958F929F92AF92BF92FB
:1007B000CF92DF92EF92FF92CF936B017C01C22F19
:1007C0006DDE4B015C019B01AC01C701B60190DFFE
:1007D00041E04C0FB701C60151DCC501B4019EDDFB
:1007E000CF91FF90EF90DF90CF90BF90AF909F9010
:1007F0008F900895DC01CB01E42FEE0FEE0F235014
:10080000E20FEA3028F4F0E0E65BFE4F408101C0E1
:1008100043E0495FBD0132CC4F925F926F927F926D
:100820008F929F92AF92BF92CF92DF92EF92FF9200
:100830000F931F93CF93DF9300D000D0CDB7DEB7D7
:100840004B015C0129833A834B835C832701380188
:10085000A801970123DE6B017C019B01AC01C5015E
:10086000B40146DF920149815A81C501B401C2DF5A
:10087000C701B60153DD0F900F900F900F90DF91DD
:10088000CF911F910F91FF90EF90DF90CF90BF908D
:10089000AF909F908F907F906F905F904F90089552
:1008A000CF92DF92EF92FF920F931F93CF93DF933C
:1008B00060915601709157018091580190915901B2
:1008C000C0918201D091830120915A0130915B0146
:1008D00040915C0150915D0167DF21E030E02C1711
:1008E0003D07ECF469014FEFC41AD40AF601EE0F8C
:1008F000FF1FEE0FFF1FEA5AFE4FE080F1800281DA
:100900001381220F331F220F331FF901EA5AFE4FC2
:1009100020813181428153817FDF9601E0CFDF91D9
:10092000CF911F910F91FF90EF90DF90CF9008959E
:10093000CF92DF92EF92FF920F931F93CF93DF93AB
:10094000C2E6D0E000E010E08091610090E008177E
:1009500019075CF5E880F980CA80DB800115110574
:1009600011F44BE006C0B701C60112DE882329F05E
:100970004CE0B601C70182DB14C0E0916100E15098
:10098000E0936100F0E0EE0FFF1FEE0FFF1FEE5946
:10099000FF4F80819181A281B38188839983AA834B
:1009A000BB830F5F1F4F2496CFCFDF91CF911F9155
:1009B0000F91FF90EF90DF90CF90089540915601F6
:1009C00050915701609158017091590180915A01DD
:1009D00090915B01C9DC609356017093570180933D
:1009E000580190935901E0918201F0918301809127
:1009F0005C0190915D01019690935D0180935C0193
:100A0000EE0FFF1FEE0FFF1FEE5AFE4F86819781FC
:100A1000019797838683892B09F473CC0895E6E5C3
:100A2000F1E0409182015091830120E030E080E0CC
:100A300090E034962417350739F062817381860F70
:100A4000971F2F5F3F4FF5CF08952091620030919F
:100A5000630080915601909157012817390761F47E
:100A600081E04091640050916500209158013091DF
:100A700059014217530709F080E081700895CF9221
:100A8000DF92EF92FF92E2E6F0E021E030E0409169
:100A90006100A42FB0E0A217B30764F0C080D1803A
:100AA000E280F380C482D582E682F78234962F5F9B
:100AB0003F4FEDCF609362007093630080936400BA
:100AC0009093650081E0840F80936100FF90EF9028
:100AD000DF90CF900895AF92BF92CF92DF92EF92C6
:100AE000FF920F931F93CF93DF9320916000C9E390
:100AF000C20FC093600093DF2C2F30E060E970E0FC
:100B0000681B790BC9010AD15C0101E010E0C3E068
:100B1000D0E068017E01C701B601A114B10411F44F
:100B2000AEDF0FC035DD811103C081E0A81AB10826
:100B30002196CB30D10569F70F5F1F4F03311105A7
:100B400031F7DF91CF911F910F91FF90EF90DF90E0
:100B5000CF90BF90AF900895CF92DF92EF92FF9227
:100B60002091820130918301A901F901EE0FFF1F4D
:100B7000EE0FFF1FEA5AFE4F1416150664F441509B
:100B80005109C080D180E280F380C482D582E682A0
:100B9000F7823497F1CF90935B0180935A011092C2
:100BA0005D0110925C012F5F3F4F309383012093D2
:100BB0008201FF90EF90DF90CF90089520915A012D
:100BC00030915B0184FD09C085FD0AC081FD0BC029
:100BD00083FF0FC081E090E008C083E090E005C093
:100BE00082E090E002C080E090E08217930709F075
:100BF000B3CF089585E087BB18BA0895E6E5F1E024
:100C000084E090E0918380839383828381E090E00D
:100C100095A784A782E090E09583848383E090E0A9
:100C2000978386831092550110925401B8DB40914E
:100C300054015091550160E070E080E190E0EDDBFF
:100C4000409154015091550161E070E080E190E0E5
:100C5000E4CBD4CFB3DFB2DEA2DB4091540150919C
:100C6000550160E070E080E190E0D7DB40915401F5
:100C70005091550161E070E080E190E0CEDB10DE44
:100C800057DE4EED50E061E070E080E090E0B8DAD1
:100C900042EB50E062E070E081E090E0B1DA4AE0DF
:100CA00051E06CE070E082E090E0AADAAFDC811104
:100CB000A5CFCBDE8823C9F08091540190915501D6
:100CC0000A969093550180935401E0918201F0912E
:100CD0008301EE0FFF1FEE0FFF1FEE5AFE4F8681BE
:100CE0009781019697838683F6CE089583DF86DF0A
:100CF00086B38A7390E0AEDFFBCF0024552704C093
:100D0000080E591F880F991F009729F0769567954F
:100D1000B8F37105B9F7802D952F089597FB072E2D
:100D200016F4009406D077FD08D00BD007FC05D050
:100D30003EF4909581959F4F0895709561957F4FF2
:100D40000895AA1BBB1B51E107C0AA1FBB1FA61712
:100D5000B70710F0A61BB70B881F991F5A95A9F764
:0E0D600080959095BC01CD010895F894FFCFC9
:100D6E0017010A000700000000000000000000004C
:100D7E000000000000000000000000000000000065
:100D8E000000000000000000000000000000000055
:100D9E000000000000000000000000000000000045
:100DAE000000000000000000000000000000000035
:100DBE000000000000000A040000040E0000080EEF
:100DCE000000020C00000E020000020E00000A0ECF
:100DDE000000040400000A0E0000020E00000000D5
:100DEE00000000040A0A00040C04000C0204000CAB
:100DFE0002060008080A000E080E000E080E000E6D
:100E0E000204000E0A0E000E0A0E00000000060676
:100E1E000A06060A0606040B0F00020D0F00060254
:100E2E000406000D0B000003050606050300000C6A
:100E3E000A06060A0C0002050200060B0D06000F3C
:100E4E000F00060606060F0F0F0F01030302000028
:040E5E000103030287
:00000001FF
