:100000000EC028C027C026C025C024C023C022C0DF
:1000100021C020C01FC01EC01DC01CC01BC0112499
:100020001FBECFE5D2E0DEBFCDBF11E0A0E6B0E05D
:10003000E0ECFAE002C005900D92A436B107D9F7C2
:1000400021E0A4E6B1E001C01D92AA3EB207E1F7AB
:10005000F6D434C5D5CF86B38A7390E0089528E0EE
:1000600030E094E045E018BA87FF02C048BB01C009
:1000700098BB880F21503109B1F70895CF93DF93D2
:10008000DC01EB019B0135952795CD0166E070E021
:10009000DDD48E589E4FFC01E20FF31F9081C0FF0C
:1000A00004C04295407F9F7001C0907F492BCD01D5
:1000B00066E070E0CBD48E589E4FFC01E20FF31F38
:1000C0004083DF91CF910895AB019B013595279532
:1000D00066E070E0BBD48E589E4FFC01E20FF31F28
:1000E000808140FD82958F700895982F9295907F22
:1000F000892BE2E7F1E08083818382838383848399
:100100008583369691E0EA3EF907A9F708957F9234
:100110008F929F92AF92BF92CF92DF92EF92FF9217
:100120000F931F93CF93DF936C017B014A01590119
:10013000C0E0D0E000E010E00C151D052CF5B70183
:10014000C801C2DF782EB701C8010196BDDFE72DD7
:10015000F0E0EE0FFF1FEE0FFF1FE80DF91DEC0F93
:10016000FD1F90819295907FE82FF0E0EE0FFF1F2A
:10017000EE0FFF1FE80DF91DEC0FFD1F8081892B8D
:100180006EDF0E5F1F4FD8CF8601043111052CF5AD
:10019000B701C80199DF782EB701C801019694DF35
:1001A000E72DF0E0EE0FFF1FEE0FFF1FEA0DFB1D26
:1001B000EC0FFD1F90819295907FE82FF0E0EE0FFD
:1001C000FF1FEE0FFF1FEA0DFB1DEC0FFD1F8081CF
:1001D000892B45DF0E5F1F4FD8CF2196C430D10544
:1001E00009F0A8CFDF91CF911F910F91FF90EF9071
:1001F000DF90CF90BF90AF909F908F907F900895A9
:100200009F92AF92BF92CF92DF92EF92FF920F93A5
:100210001F93CF93DF93EC016B017A01CC15DD05C1
:10022000A4F5A12CB12C00E010E0BE01C8014CDF08
:10023000982EBE01C801019647DFE92DF0E0EE0FD0
:10024000FF1FEE0FFF1FEE0DFF1DEA0DFB1D90813E
:100250009295907FE82FF0E0EE0FFF1FEE0FFF1F4B
:10026000EE0DFF1DEA0DFB1D8081892BF8DE0E5F70
:100270001F4F04311105C9F68FEFA81AB80A84E0A0
:10028000A816B10481F62196C9CFDF91CF911F91B5
:100290000F91FF90EF90DF90CF90BF90AF909F9025
:1002A0000895AC016CE070E080E090E0A9CFFB0124
:1002B000EE0FFF1FEE0FFF1FEC58FF4F9C012C5F4E
:1002C0003F4F4191DC014D93CD01A217B307C9F710
:1002D0000895AF92BF92DF92EF92FF920F931F9318
:1002E000CF93DF9300D000D0CDB7DEB79C012C5F59
:1002F0003F4FFC01DE01119640814D931192E217B0
:10030000F307D1F760E070E008E010E0EE24E3943A
:10031000F12C5801062E02C0B594A7940A94E2F776
:10032000FE01319640E050E0219130E02A213B214E
:10033000232B51F0DC01DC909701042E01C0220F29
:100340000A94EAF72D292C934F5F5F4F44305105F3
:1003500059F76F5F7F4F019664307105D1F60F90AA
:100360000F900F900F90DF91CF911F910F91FF9001
:10037000EF90DF90BF90AF9008954F925F926F9291
:100380007F928F929F92AF92BF92CF92DF92EF9225
:10039000FF920F931F93CF93DF93EA012B0121E08C
:1003A000421A51084C015A0184E0A80EB11C00E029
:1003B00010E0F40161904F01712C6201E12CF12CED
:1003C000C3010E2C02C0959587950A94E2F780FF31
:1003D00018C0C130D10521F0CB30D1051CF022C0AE
:1003E00001E010E0C60101970A97F8F4CB30D1057F
:1003F00040F4BE01C60168DE882319F0C8010196E9
:1004000016C0EFEFCE1ADE0AFFEFEF1AFF0A24E064
:10041000E216F104A9F62196AC16BD0651F680E06D
:1004200090E005C081E090E002C083E090E0DF91C1
:10043000CF911F910F91FF90EF90DF90CF90BF90E1
:10044000AF909F908F907F906F905F904F900895A6
:100450000F931F93CF93DF938C01C1E0D0E0B801DD
:10046000CE0132DE882331F02196CB30D105B9F7A9
:1004700081E001C080E0DF91CF911F910F9108953D
:10048000EF92FF920F931F93CF93DF937C01C1E014
:10049000D0E087010150110917FD0AC0B801CE0153
:1004A00013DEB8016F5F7F4F482FCE01E7DDF2CF3B
:1004B00040E060E070E0CE01E1DD2196CB30D10577
:1004C00041F7DF91CF911F910F91FF90EF90089529
:1004D0008230910581F01CF4019739F00895833042
:1004E000910581F00497A9F008958091640190919D
:1004F00065010A9614C080916401909165018C5940
:100500009F4F0DC08091640190916501845D9E4F65
:1005100006C0809164019091650180559B4F909336
:1005200065018093640108950F931F93CF93DF9328
:10053000CAE0D0E000E010E0CE018ADF882329F095
:10054000CE019EDF21960F5F1F4F2197D7FFF4CF7B
:10055000C801BEDF8091660190916701080F191FE5
:100560001093670100936601DF91CF911F910F9166
:1005700008957F928F929F92AF92BF92CF92DF9217
:10058000EF92FF920F931F93CF93DF93722E0197F9
:100590005C018B0101501109EA017B0183E0E80E47
:1005A000F11C17FF14C00F5F1F4F21960E151F057A
:1005B000C1F7DF91CF911F910F91FF90EF90DF90E6
:1005C000CF90BF90AF909F908F907F9008954501FE
:1005D000C12CD12C888190E00C2C02C09595879578
:1005E0000A94E2F780FF04C0472DB801C40146DD3C
:1005F0008FEF881A980A8FEFC81AD80A84E0C816B5
:10060000D10441F7D0CFCF93DF9380E06EDDC1E01E
:10061000D0E045E06BE070E0CE0130DD2196CB30DC
:10062000D105B9F7C0E0D0E046E0BE0180E090E03F
:1006300025DD46E0BE018BE090E020DD2196CB3049
:10064000D10591F747E06BE070E080E090E016DDC7
:1006500048E06BE070E08BE090E0DF91CF910ECD51
:10066000FF920F931F93CF93DF93F82E01E010E0DA
:10067000C0E0D0E04F2DBE01C80100DD2196CB3097
:10068000D105C1F70F5F1F4F0B30110589F7DF91BF
:10069000CF911F910F91FF900895EF92FF920F93CA
:1006A0001F93CF93DF937B01EA018C01041B150B91
:1006B000C8018C0F9D1F4991442319F0B701DEDC5E
:1006C000F7CFDF91CF911F910F91FF90EF90089599
:1006D0006F927F928F929F92AF92BF92CF92DF9252
:1006E000EF92FF920F931F93CF93DF93EC015B0187
:1006F0004A017C0184E0E80EF11C08EE13E08AE078
:10070000C82ED12CC401B801B2D1762E672E41E09B
:10071000460FB501CE01B2DC872D962DB80196D1DA
:10072000881A990AC801B601A2D18B012196EC164C
:10073000FD0641F7DF91CF911F910F91FF90EF9050
:10074000DF90CF90BF90AF909F908F907F906F90F1
:10075000089524EB30E044E351E060E070E08CE089
:1007600090E0D5DC2CE830E044E351E061E070E05B
:100770008CE090E0CCDC28E031E044E351E062E042
:1007800070E08CE090E0C3DC2CED30E044E351E01D
:1007900063E070E08CE090E0BADC24EB30E044E30E
:1007A00051E064E070E08CE090E0B1DC2CE830E0F7
:1007B00044E351E065E070E08CE090E0A8DC28E0E4
:1007C00031E044E351E066E070E08CE090E09FDCD3
:1007D0002CED30E044E351E067E070E08CE090E025
:1007E00096DC44E351E06CE070E088E090E008CDF6
:1007F00085E087BB18BA0895FF920F931F93CF939C
:10080000DF93F82E81FF03C08AE691E062DD00915C
:10081000620010916300F3FC07C0C0916000D091AA
:100820006100F4FC12C01EC0C0916000D091610054
:10083000AE01B8018AE691E0A0DD019771F321963F
:10084000D0936100C0936000EFCF01501109AE0159
:10085000B8018AE691E091DD892B21F410936300C1
:1008600000936200F5FE11C00091620010916300D8
:100870000F5F1F4FAE01B8018AE691E07EDD892B44
:1008800021F4109363000093620060916200709104
:100890006300AE018AE691E070DD009729F42196AD
:1008A000D0936100C0936000DF91CF911F910F91B1
:1008B000FF90089539DE60916801709169018AE6C0
:1008C00091E0F5DC8091680190916901019666E004
:1008D00070E0CDD0909369018093680120E04EE6EE
:1008E00051E069E070E08FE090E043DE60916801E4
:1008F000709169018EE691E0DADC8091640090915C
:100900006500019623E030E0B901B1D09093650015
:10091000809364000196B901AAD021E0280F4EE629
:1009200051E069E070E08FE090E023DE46E650E0C1
:1009300060E070E08CE090E0B0DE46E650E061E020
:1009400070E08CE090E0A9DE409164015091650177
:1009500062E070E080E190E0BBDE40916401509184
:10096000650163E070E080E190E0B2DE4DE650E0CA
:1009700064E070E08CE090E090DE4DE650E065E0F1
:1009800070E08CE090E089DE409166015091670153
:1009900066E070E080E190E09BDE4091660150915E
:1009A000670167E070E080E190E092DE85E090E032
:1009B00090936300809362008EEF9FEF90936100AD
:1009C0008093600008951FDE80E090E049DE109281
:1009D00067011092660110926501109264016ACF5E
:1009E000CF93DF93EC01609160007091610020E093
:1009F0004AE651E08091620090916300BADDCE0139
:100A0000FBDEEC01209164002F5F6091600070912B
:100A100061004AE651E08091620090916300A9DD97
:100A200098DEC130D10529F0229731F4DF91CF91C2
:100A3000CACFDF91CF913ECFDF91CF910895D8DE1D
:100A4000C2DF86B38A7390E0CBDFFBCF002455274B
:100A500004C0080E591F880F991F009729F076953A
:100A60006795B8F37105B9F7802D952F089597FB19
:100A7000072E16F4009406D077FD08D00BD007FCA3
:100A800005D03EF4909581959F4F0895709561959E
:100A90007F4F0895AA1BBB1B51E107C0AA1FBB1FB4
:100AA000A617B70710F0A61BB70B881F991F5A95FA
:100AB000A9F780959095BC01CD010895F894FFCFDA
:100AC000FEFF0300010008010607020900040305F8
:100AD00002080900000F0000000E020000020E00D4
:100AE0000006060000060C00000C060000000000D6
:100AF000080E0000080E0000040E0000080E0000A2
:100B00000A0A00000A0E000008080000020E000099
:100B10000800000000000000000E0808000E080E8B
:100B2000000E040400080808000E0A0A000E0A0A53
:100B3000000E0808000E080E00000800000000006B
:100B40000A040000040E0000080E0000020C000061
:100B50000E020000020E00000A0E00000404000055
:100B60000A0E0000020E00000000000000040A0A45
:100B700000040C04000C0204000C02060008080A21
:100B8000000E080E000E080E000E0204000E0A0EE3
:100B9000000E0A0E000000000F0F0F0F0F09090FC3
:100BA0000F08090A0A050A05000F0F0006060606C7
:100BB00006070700060E0E000500040003000200F1
:040BC0000100000030
:00000001FF
